:060000000A128A11EC2F28
:10087C0083120313081008100814442C452C000094
:10088C0008000430F1003D30F000F00B4B2CF10B64
:10089C004B2C502C0800831203130810081008105E
:1008AC000810081008100810081008145D2C5E2C95
:1008BC0000000800F300F201731C682C7008F100B2
:1008CC007108F2070310F00D0310F30C7308031DED
:1008DC00622C720808007E088A007F08820071244E
:1008EC000A128A118000840A04087D060319003458
:1008FC00FF0A0319FE0A752CF0007003031D952CDA
:10090C0083120313081008100810081008100810A0
:10091C00081008100814922C932C00000800831265
:10092C0003130810081008149B2C9C2C00000800C2
:10093C000134023401340234FF3400340034003406
:10094C000034003400340034FF34003400340034FC
:10095C000034003400340034FF340034FF340034ED
:10096C00003400340034003400340034FF340034DC
:10097C00003400340034003400340034FF340034CC
:10098C00FD0177087D02031808000630F80078088E
:10099C00F0007D080A128A1160240A128A11023EA4
:1009AC00243E840083130008F9007908F400063013
:1009BC00FA007A08F0007D080A128A1160240A12E3
:1009CC008A11043E243E840083130008FB007B083C
:1009DC00F5000630FC007C08F0007D080A128A1134
:1009EC0060240A128A11243E8400831300080A1220
:1009FC008A11AE260A128A110130F8007808FD0718
:100A0C00C72C0A128A1151240A128A110A128A114D
:100A1C0051240A128A110A128A1151240A128A11BB
:100A2C000A128A1151240A128A110A128A115124AB
:100A3C000A128A110A128A1151240A128A110A12F4
:100A4C008A1151240A128A110A128A1151240A128B
:100A5C008A110A128A1151240A128A110A128A1155
:100A6C0051240A128A110A128A1151240A128A116B
:100A7C000A128A1151240A128A110A128A1151245B
:100A8C000A128A110A128A1151240A128A110A12A4
:100A9C008A1151240A128A110A128A1151240A123B
:100AAC008A110A128A1151240A128A110A128A1105
:100ABC0051240A128A110A128A1151240A128A111B
:100ACC000A128A1151240A128A110A128A1151240B
:100ADC000A128A110A128A1151240A128A110A1254
:100AEC008A1151240A128A110A128A113E24080012
:100AFC008B138316031308108312031308140A12A2
:100B0C008A1107250A128A11043083120313DF009D
:100B1C003D30DE00DE0B902DDF0B902D952D03303C
:100B2C0083120313DE005E08F70024300A128A11C8
:100B3C00C6240A128A110A128A1147240A128A112F
:100B4C001A3083120313E0005E30DF008630DE00C3
:100B5C00DE0BAE2DDF0BAE2DE00BAE2D00008312A5
:100B6C000313A401A501FF30A6000030A700A801C3
:100B7C00A901AA01AB01AC01AD01FF30AE00003000
:100B8C00AF00FF30B0000030B100B201B301B401CE
:100B9C00B501063083120313DE005E08F000620814
:100BAC000A128A1160240A128A11243E8400FF3032
:100BBC0083138000840A00308000063083120313F4
:100BCC00DE005E08F00062080A128A1160240A1224
:100BDC008A11023E243E840083138001840A800122
:100BEC00063083120313DE005E08F00062080A125E
:100BFC008A1160240A128A11043E243E8400831355
:100C0C008001840A8001063083120313DE005E0823
:100C1C00F00020080A128A1160240A128A11243E5C
:100C2C00840083138001840A80010630831203132D
:100C3C00DE005E08F00020080A128A1160240A12F5
:100C4C008A11023E243E8400FF3083138000840A04
:100C5C0000308000063083120313DE005E08F000C3
:100C6C0020080A128A1160240A128A11043E243EBA
:100C7C00840083138001840A8001063083120313DD
:100C8C00DE005E08F00021080A128A1160240A12A4
:100C9C008A11243E840083138001840A800106306B
:100CAC0083120313DE005E08F00021080A128A1179
:100CBC0060240A128A11023E243E840083138001B0
:100CCC00840A8001063083120313DE005E08F000F4
:100CDC0021080A128A1160240A128A11043E243E49
:100CEC008400FF3083138000840A0030800083125C
:100CFC0003136208DE005E08E4002008DE005E08D4
:100D0C00E2002108DE005E08A0006408DE005E0838
:100D1C00A1000330DE005E08F70024300A128A11AD
:100D2C00C6240A128A110A128A1147240A128A113D
:100D3C00033083120313E0008A30DF005630DE00EC
:100D4C00DE0BA62EDF0BA62EE00BA62EAD2ECF2D86
:100D5C0083120313DD00C8015D080319B72EC80107
:100D6C00C80A48080A128A1182240A128A118312AC
:100D7C000313C9015D080319C52EC901C90A490825
:100D8C000A128A1182240A128A1183120313CA01CD
:100D9C005D080319D32ECA01CA0A4A080A128A111D
:100DAC0082240A128A1183120313CB015D080319E2
:100DBC00E12ECB01CB0A4B080A128A1182240A12AB
:100DCC008A1183120313CC015D080319EF2ECC0199
:100DDC00CC0A4C080A128A1182240A128A11831234
:100DEC000313CD015D080319FD2ECD01CD0A4D086D
:100DFC000A128A1182240A128A1183120313CE0159
:100E0C005D0803190B2FCE01CE0A4E080A128A1167
:100E1C0082240A128A1100300A128A1182240A12C0
:100E2C008A1183120313CF01740803191F2FCF01EA
:100E3C00CF0A4F080A128A1182240A128A118312CD
:100E4C000313D001740803192D2FD001D00A5008B8
:100E5C000A128A1182240A128A1183120313D101F5
:100E6C00740803193B2FD101D10A51080A128A11B7
:100E7C0082240A128A1183120313D20174080319F3
:100E8C00492FD201D20A52080A128A1182240A125C
:100E9C008A1183120313D30174080319572FD3013A
:100EAC00D30A53080A128A1182240A128A11831255
:100EBC000313D40174080319652FD401D40A540800
:100ECC000A128A1182240A128A1183120313D50181
:100EDC0074080319732FD501D50A55080A128A1103
:100EEC0082240A128A1100300A128A1182240A12F0
:100EFC008A1183120313D60175080319872FD601A3
:100F0C00D60A56080A128A1182240A128A118312EE
:100F1C000313D70175080319952FD701D70A570862
:100F2C000A128A1182240A128A1183120313D8011D
:100F3C0075080319A32FD801D80A58080A128A1168
:100F4C0082240A128A1183120313D901750803191A
:100F5C00B12FD901D90A59080A128A1182240A120E
:100F6C008A1183120313DA0175080319BF2FDA01F2
:100F7C00DA0A5A080A128A1182240A128A11831276
:100F8C000313DB0175080319CD2FDB01DB0A5B08AA
:100F9C000A128A1182240A128A1183120313DC01A9
:100FAC0075080319DB2FDC01DC0A5C080A128A11B4
:100FBC0082240A128A1100300A128A1182240A121F
:100FCC008A115330F600F60BE92F0800E101E2011B
:100FDC00E301E40183134830FD000430FE009E3031
:100FEC00FF00203084000A128A11752483010A1232
:040FFC008A117E2DAB
:04400E00F2F8FFFFC6
:00000001FF
